S01700004763634170706C69636174696F6E362E7372656356
S113000071C0000081C000007FC000007DC00000FE
S11300107BC0000079C0000077C0000075C00000FC
S113002073C0000071C000006FC000006DC000000C
S11300306BC0000069C0000067C0000065C000001C
S113004063C0000061C000005FC000005DC000002C
S11300505BC0000059C0000057C0000055C000003C
S113006053C0000051C000004FC000004DC000004C
S11300704BC0000049C0000047C0000045C000005C
S113008043C0000041C000003FC000003DC000006C
S11300903BC0000039C0000037C0000035C000007C
S11300A033C0000031C000002FC000002DC000008C
S11300B02BC0000029C0000027C0000025C000009C
S11300C023C0000021C000001FC000001DC00000AC
S11300D01BC0000019C0000017C0000015C00000BC
S11300E013C0000011241FBECFEFD1E2DEBFCDBF8D
S11300F000E00CBF22E0A0E0B2E001C01D92A530F8
S1130100B207E1F778D0CCC07BCF10BA11BA109205
S1130110070110920801089581B18F6081B982B1FD
S1130120807F82B9EAE0F1E0808188618083EBE03E
S1130130F1E08081886180830895E7DFEDCF089541
S1130140E1E2F1E010828FEF8093250191E090933A
S11301502401109229018093280110922B0180938D
S11301602A0110922D0180932C0189EA80932001A9
S11301708BE080830895EAE7F0E0108210927B0020
S113018080E280937C0080E880BF86E880830895C5
S1130190883018F098E090937B0087708062809399
S11301A07C00EAE7F0E0808180648083808184FFC2
S11301B0FDCF80917900EAE7F0E09081906190832F
S11301C010927B00089592B1907F8F70982B92B912
S11301D0089586E0F8CF089580E0F5CF089585E08E
S11301E0F2CF08958AE0EFCF0895F894A6DFC3DF35
S11301F0A7DF78940895F9DF83E0CADF80930202D1
S113020082E0C6DF8093010281E0C2DF80930002B6
S11302101092030283E0BCDF8093040282E0B8DF23
S11302208093040281E0B4DF80930402809102028F
S1130230883090F480910102883018F59091000282
S1130240983020F1CFDFD8CFCDDFD6CF8091000218
S1130250883090F6BEDFD0CF80910102893030F42F
S113026090910002993010F4BADFC6CF883008F4B8
S1130270C3CF80910002893068F4B1DFBDCFACDF19
S1130280BBCF80910002883008F3DECF883008F4B9
S1130290B3CFDCCF80910002883008F4ADCFEFCF2C
S10702A0F894FFCFFC
S9030000FC
